{
  "_format": "hh-sol-artifact-1",
  "contractName": "FentanylSupplyChain",
  "sourceName": "contracts/FentanylSupplyChain.sol",
  "abi": [
    {
      "inputs": [],
      "stateMutability": "nonpayable",
      "type": "constructor"
    },
    {
      "anonymous": false,
      "inputs": [
        {
          "indexed": false,
          "internalType": "uint256",
          "name": "id",
          "type": "uint256"
        },
        {
          "indexed": false,
          "internalType": "string",
          "name": "name",
          "type": "string"
        },
        {
          "indexed": false,
          "internalType": "address",
          "name": "owner",
          "type": "address"
        }
      ],
      "name": "DrugCreated",
      "type": "event"
    },
    {
      "anonymous": false,
      "inputs": [
        {
          "indexed": false,
          "internalType": "uint256",
          "name": "id",
          "type": "uint256"
        },
        {
          "indexed": false,
          "internalType": "address",
          "name": "from",
          "type": "address"
        },
        {
          "indexed": false,
          "internalType": "address",
          "name": "to",
          "type": "address"
        }
      ],
      "name": "DrugTransferred",
      "type": "event"
    },
    {
      "anonymous": false,
      "inputs": [
        {
          "indexed": false,
          "internalType": "uint256",
          "name": "id",
          "type": "uint256"
        }
      ],
      "name": "RequestApproved",
      "type": "event"
    },
    {
      "anonymous": false,
      "inputs": [
        {
          "indexed": false,
          "internalType": "uint256",
          "name": "id",
          "type": "uint256"
        },
        {
          "indexed": false,
          "internalType": "string",
          "name": "actionType",
          "type": "string"
        },
        {
          "indexed": false,
          "internalType": "string",
          "name": "payload",
          "type": "string"
        },
        {
          "indexed": false,
          "internalType": "address",
          "name": "requestedBy",
          "type": "address"
        }
      ],
      "name": "RequestSubmitted",
      "type": "event"
    },
    {
      "inputs": [],
      "name": "admin",
      "outputs": [
        {
          "internalType": "address",
          "name": "",
          "type": "address"
        }
      ],
      "stateMutability": "view",
      "type": "function"
    },
    {
      "inputs": [
        {
          "internalType": "uint256",
          "name": "requestId",
          "type": "uint256"
        }
      ],
      "name": "approveRequest",
      "outputs": [],
      "stateMutability": "nonpayable",
      "type": "function"
    },
    {
      "inputs": [],
      "name": "drugCount",
      "outputs": [
        {
          "internalType": "uint256",
          "name": "",
          "type": "uint256"
        }
      ],
      "stateMutability": "view",
      "type": "function"
    },
    {
      "inputs": [
        {
          "internalType": "uint256",
          "name": "",
          "type": "uint256"
        }
      ],
      "name": "drugs",
      "outputs": [
        {
          "internalType": "uint256",
          "name": "id",
          "type": "uint256"
        },
        {
          "internalType": "string",
          "name": "name",
          "type": "string"
        },
        {
          "internalType": "string",
          "name": "manufacturer",
          "type": "string"
        },
        {
          "internalType": "uint256",
          "name": "timestamp",
          "type": "uint256"
        },
        {
          "internalType": "address",
          "name": "currentOwner",
          "type": "address"
        }
      ],
      "stateMutability": "view",
      "type": "function"
    },
    {
      "inputs": [
        {
          "internalType": "uint256",
          "name": "drugId",
          "type": "uint256"
        }
      ],
      "name": "getCurrentOwner",
      "outputs": [
        {
          "internalType": "address",
          "name": "",
          "type": "address"
        }
      ],
      "stateMutability": "view",
      "type": "function"
    },
    {
      "inputs": [],
      "name": "requestCount",
      "outputs": [
        {
          "internalType": "uint256",
          "name": "",
          "type": "uint256"
        }
      ],
      "stateMutability": "view",
      "type": "function"
    },
    {
      "inputs": [
        {
          "internalType": "string",
          "name": "actionType",
          "type": "string"
        },
        {
          "internalType": "string",
          "name": "payload",
          "type": "string"
        }
      ],
      "name": "submitRequest",
      "outputs": [],
      "stateMutability": "nonpayable",
      "type": "function"
    },
    {
      "inputs": [
        {
          "internalType": "uint256",
          "name": "",
          "type": "uint256"
        }
      ],
      "name": "txRequests",
      "outputs": [
        {
          "internalType": "uint256",
          "name": "id",
          "type": "uint256"
        },
        {
          "internalType": "address",
          "name": "requestedBy",
          "type": "address"
        },
        {
          "internalType": "string",
          "name": "actionType",
          "type": "string"
        },
        {
          "internalType": "string",
          "name": "payload",
          "type": "string"
        },
        {
          "internalType": "bool",
          "name": "approved",
          "type": "bool"
        }
      ],
      "stateMutability": "view",
      "type": "function"
    }
  ],
  "bytecode": "0x6080604052348015600f57600080fd5b50336000806101000a81548173ffffffffffffffffffffffffffffffffffffffff021916908373ffffffffffffffffffffffffffffffffffffffff1602179055506123fe8061005f6000396000f3fe608060405234801561001057600080fd5b50600436106100885760003560e01c80637ace341b1161005b5780637ace341b14610119578063d7d1bbdb14610149578063f851a44014610165578063fca5e61e1461018357610088565b80631e6495921461008d5780635badbe4c146100a957806374eb87c7146100c75780637577ca37146100fb575b600080fd5b6100a760048036038101906100a29190611694565b6101b7565b005b6100b1610309565b6040516100be9190611725565b60405180910390f35b6100e160048036038101906100dc919061176c565b61030f565b6040516100f2959493929190611874565b60405180910390f35b610103610482565b6040516101109190611725565b60405180910390f35b610133600480360381019061012e919061176c565b610488565b60405161014091906118d5565b60405180910390f35b610163600480360381019061015e919061176c565b6104c8565b005b61016d61084f565b60405161017a91906118d5565b60405180910390f35b61019d6004803603810190610198919061176c565b610873565b6040516101ae9594939291906118f0565b60405180910390f35b600260008154809291906101ca90611980565b91905055506040518060a0016040528060025481526020013373ffffffffffffffffffffffffffffffffffffffff168152602001838152602001828152602001600015158152506004600060025481526020019081526020016000206000820151816000015560208201518160010160006101000a81548173ffffffffffffffffffffffffffffffffffffffff021916908373ffffffffffffffffffffffffffffffffffffffff160217905550604082015181600201908161028c9190611bd4565b5060608201518160030190816102a29190611bd4565b5060808201518160040160006101000a81548160ff0219169083151502179055509050507f3e330d9f90284647300b1ec650cd8bd048bd5f2faea6812734af862d034d3cd26002548383336040516102fd9493929190611ca6565b60405180910390a15050565b60025481565b60046020528060005260406000206000915090508060000154908060010160009054906101000a900473ffffffffffffffffffffffffffffffffffffffff169080600201805461035e906119f7565b80601f016020809104026020016040519081016040528092919081815260200182805461038a906119f7565b80156103d75780601f106103ac576101008083540402835291602001916103d7565b820191906000526020600020905b8154815290600101906020018083116103ba57829003601f168201915b5050505050908060030180546103ec906119f7565b80601f0160208091040260200160405190810160405280929190818152602001828054610418906119f7565b80156104655780601f1061043a57610100808354040283529160200191610465565b820191906000526020600020905b81548152906001019060200180831161044857829003601f168201915b5050505050908060040160009054906101000a900460ff16905085565b60015481565b60006003600083815260200190815260200160002060040160009054906101000a900473ffffffffffffffffffffffffffffffffffffffff169050919050565b60008054906101000a900473ffffffffffffffffffffffffffffffffffffffff1673ffffffffffffffffffffffffffffffffffffffff163373ffffffffffffffffffffffffffffffffffffffff1614610556576040517f08c379a000000000000000000000000000000000000000000000000000000000815260040161054d90611d45565b60405180910390fd5b60006004600083815260200190815260200160002090508060040160009054906101000a900460ff16156105bf576040517f08c379a00000000000000000000000000000000000000000000000000000000081526004016105b690611db1565b60405180910390fd5b60018160040160006101000a81548160ff0219169083151502179055507fbecbbd7543b68baaaf7e9c3fd12e4719f1f506f4253abef4a6573d0adf3a73ed8260405161060b9190611725565b60405180910390a17ff9355840bb624e252afc7a021f58568d339c8d8f7b9ed25de2bac669f695fb41816002016040516106459190611e74565b6040518091039020036107115761070c816003018054610664906119f7565b80601f0160208091040260200160405190810160405280929190818152602001828054610690906119f7565b80156106dd5780601f106106b2576101008083540402835291602001916106dd565b820191906000526020600020905b8154815290600101906020018083116106c057829003601f168201915b50505050508260010160009054906101000a900473ffffffffffffffffffffffffffffffffffffffff166109d9565b61084b565b7fb483afd3f4caedc6eebf44246fe54e38c95e3179a5ec9ea81740eca5b482d12e816002016040516107439190611e74565b60405180910390200361080f5761080a816003018054610762906119f7565b80601f016020809104026020016040519081016040528092919081815260200182805461078e906119f7565b80156107db5780601f106107b0576101008083540402835291602001916107db565b820191906000526020600020905b8154815290600101906020018083116107be57829003601f168201915b50505050508260010160009054906101000a900473ffffffffffffffffffffffffffffffffffffffff16610b89565b61084a565b6040517f08c379a000000000000000000000000000000000000000000000000000000000815260040161084190611ed7565b60405180910390fd5b5b5050565b60008054906101000a900473ffffffffffffffffffffffffffffffffffffffff1681565b600360205280600052604060002060009150905080600001549080600101805461089c906119f7565b80601f01602080910402602001604051908101604052809291908181526020018280546108c8906119f7565b80156109155780601f106108ea57610100808354040283529160200191610915565b820191906000526020600020905b8154815290600101906020018083116108f857829003601f168201915b50505050509080600201805461092a906119f7565b80601f0160208091040260200160405190810160405280929190818152602001828054610956906119f7565b80156109a35780601f10610978576101008083540402835291602001916109a3565b820191906000526020600020905b81548152906001019060200180831161098657829003601f168201915b5050505050908060030154908060040160009054906101000a900473ffffffffffffffffffffffffffffffffffffffff16905085565b6000825111610a1d576040517f08c379a0000000000000000000000000000000000000000000000000000000008152600401610a1490611f43565b60405180910390fd5b60016000815480929190610a3090611980565b91905055506040518060a0016040528060015481526020018381526020016040518060400160405280601481526020017f56657269666965644d616e75666163747572657200000000000000000000000081525081526020014281526020018273ffffffffffffffffffffffffffffffffffffffff16815250600360006001548152602001908152602001600020600082015181600001556020820151816001019081610add9190611bd4565b506040820151816002019081610af39190611bd4565b506060820151816003015560808201518160040160006101000a81548173ffffffffffffffffffffffffffffffffffffffff021916908373ffffffffffffffffffffffffffffffffffffffff1602179055509050507fdef36bac3cc3041d451adf61ee2c8b604104d41fbf761f9ac0e01e0fe3ab0c936001548383604051610b7d93929190611f63565b60405180910390a15050565b600080610b9584610d0e565b9150915060006003600084815260200190815260200160002090506000816000015403610bf7576040517f08c379a0000000000000000000000000000000000000000000000000000000008152600401610bee90611fed565b60405180910390fd5b8373ffffffffffffffffffffffffffffffffffffffff168160040160009054906101000a900473ffffffffffffffffffffffffffffffffffffffff1673ffffffffffffffffffffffffffffffffffffffff1614610c89576040517f08c379a0000000000000000000000000000000000000000000000000000000008152600401610c8090612059565b60405180910390fd5b818160040160006101000a81548173ffffffffffffffffffffffffffffffffffffffff021916908373ffffffffffffffffffffffffffffffffffffffff1602179055507f6dda5e3ecad7a4c94f91aa557b4624d5c689836632f15175473ab73058c88949838584604051610cff93929190612079565b60405180910390a15050505050565b60008060008390506000805b8251811015610dc0577f2c000000000000000000000000000000000000000000000000000000000000007effffffffffffffffffffffffffffffffffffffffffffffffffffffffffffff1916838281518110610d7957610d786120b0565b5b602001015160f81c60f81b7effffffffffffffffffffffffffffffffffffffffffffffffffffffffffffff191603610db357809150610dc0565b8080600101915050610d1a565b50600081118015610ddd575060018251610dda91906120df565b81105b610e1c576040517f08c379a0000000000000000000000000000000000000000000000000000000008152600401610e139061215f565b60405180910390fd5b60008167ffffffffffffffff811115610e3857610e37611569565b5b6040519080825280601f01601f191660200182016040528015610e6a5781602001600182028036833780820191505090505b50905060006001838551610e7e91906120df565b610e8891906120df565b67ffffffffffffffff811115610ea157610ea0611569565b5b6040519080825280601f01601f191660200182016040528015610ed35781602001600182028036833780820191505090505b50905060005b83811015610f4e57848181518110610ef457610ef36120b0565b5b602001015160f81c60f81b838281518110610f1257610f116120b0565b5b60200101907effffffffffffffffffffffffffffffffffffffffffffffffffffffffffffff1916908160001a9053508080600101915050610ed9565b506000600184610f5e919061217f565b90505b8451811015610fee57848181518110610f7d57610f7c6120b0565b5b602001015160f81c60f81b8260018684610f9791906120df565b610fa191906120df565b81518110610fb257610fb16120b0565b5b60200101907effffffffffffffffffffffffffffffffffffffffffffffffffffffffffffff1916908160001a9053508080600101915050610f61565b506000610ffa83611030565b905060006110078261120d565b9050600061101c61101785611030565b61139d565b905081819850985050505050505050915091565b60606000829050600080825190505b80821080156110905750602060f81b838381518110611061576110606120b0565b5b602001015160f81c60f81b7effffffffffffffffffffffffffffffffffffffffffffffffffffffffffffff1916145b156110a85781806110a090611980565b92505061103f565b5b81811180156111065750602060f81b836001836110c691906120df565b815181106110d7576110d66120b0565b5b602001015160f81c60f81b7effffffffffffffffffffffffffffffffffffffffffffffffffffffffffffff1916145b1561111e578080611116906121b3565b9150506110a9565b6000828261112c91906120df565b67ffffffffffffffff81111561114557611144611569565b5b6040519080825280601f01601f1916602001820160405280156111775781602001600182028036833780820191505090505b50905060008390505b828110156112005784818151811061119b5761119a6120b0565b5b602001015160f81c60f81b8285836111b391906120df565b815181106111c4576111c36120b0565b5b60200101907effffffffffffffffffffffffffffffffffffffffffffffffffffffffffffff1916908160001a9053508080600101915050611180565b5080945050505050919050565b60008082905060005b815181101561139657602060f81b828281518110611237576112366120b0565b5b602001015160f81c60f81b7effffffffffffffffffffffffffffffffffffffffffffffffffffffffffffff1916031561138957603060f81b828281518110611282576112816120b0565b5b602001015160f81c60f81b7effffffffffffffffffffffffffffffffffffffffffffffffffffffffffffff1916101580156113005750603960f81b8282815181106112d0576112cf6120b0565b5b602001015160f81c60f81b7effffffffffffffffffffffffffffffffffffffffffffffffffffffffffffff191611155b61133f576040517f08c379a000000000000000000000000000000000000000000000000000000000815260040161133690612228565b60405180910390fd5b6030828281518110611354576113536120b0565b5b602001015160f81c60f81b60f81c60ff1661136f91906120df565b600a8461137c9190612248565b611386919061217f565b92505b8080600101915050611216565b5050919050565b600080829050602a8151146113e7576040517f08c379a00000000000000000000000000000000000000000000000000000000081526004016113de906122d6565b60405180910390fd5b600080806000600290505b602a8110156114b2576101008461140991906122f6565b935084818151811061141e5761141d6120b0565b5b602001015160f81c60f81b60f81c60ff1692508460018261143f919061217f565b815181106114505761144f6120b0565b5b602001015160f81c60f81b60f81c60ff16915061146c836114bf565b9250611477826114bf565b91508160108461148791906122f6565b6114919190612338565b8461149c9190612338565b93506002816114ab919061217f565b90506113f2565b5082945050505050919050565b600060618273ffffffffffffffffffffffffffffffffffffffff16106114f3576057826114ec9190612380565b9050611535565b60418273ffffffffffffffffffffffffffffffffffffffff16106115255760378261151e9190612380565b9050611535565b6030826115329190612380565b90505b919050565b6000604051905090565b600080fd5b600080fd5b600080fd5b600080fd5b6000601f19601f8301169050919050565b7f4e487b7100000000000000000000000000000000000000000000000000000000600052604160045260246000fd5b6115a182611558565b810181811067ffffffffffffffff821117156115c0576115bf611569565b5b80604052505050565b60006115d361153a565b90506115df8282611598565b919050565b600067ffffffffffffffff8211156115ff576115fe611569565b5b61160882611558565b9050602081019050919050565b82818337600083830152505050565b6000611637611632846115e4565b6115c9565b90508281526020810184848401111561165357611652611553565b5b61165e848285611615565b509392505050565b600082601f83011261167b5761167a61154e565b5b813561168b848260208601611624565b91505092915050565b600080604083850312156116ab576116aa611544565b5b600083013567ffffffffffffffff8111156116c9576116c8611549565b5b6116d585828601611666565b925050602083013567ffffffffffffffff8111156116f6576116f5611549565b5b61170285828601611666565b9150509250929050565b6000819050919050565b61171f8161170c565b82525050565b600060208201905061173a6000830184611716565b92915050565b6117498161170c565b811461175457600080fd5b50565b60008135905061176681611740565b92915050565b60006020828403121561178257611781611544565b5b600061179084828501611757565b91505092915050565b600073ffffffffffffffffffffffffffffffffffffffff82169050919050565b60006117c482611799565b9050919050565b6117d4816117b9565b82525050565b600081519050919050565b600082825260208201905092915050565b60005b838110156118145780820151818401526020810190506117f9565b60008484015250505050565b600061182b826117da565b61183581856117e5565b93506118458185602086016117f6565b61184e81611558565b840191505092915050565b60008115159050919050565b61186e81611859565b82525050565b600060a0820190506118896000830188611716565b61189660208301876117cb565b81810360408301526118a88186611820565b905081810360608301526118bc8185611820565b90506118cb6080830184611865565b9695505050505050565b60006020820190506118ea60008301846117cb565b92915050565b600060a0820190506119056000830188611716565b81810360208301526119178187611820565b9050818103604083015261192b8186611820565b905061193a6060830185611716565b61194760808301846117cb565b9695505050505050565b7f4e487b7100000000000000000000000000000000000000000000000000000000600052601160045260246000fd5b600061198b8261170c565b91507fffffffffffffffffffffffffffffffffffffffffffffffffffffffffffffffff82036119bd576119bc611951565b5b600182019050919050565b7f4e487b7100000000000000000000000000000000000000000000000000000000600052602260045260246000fd5b60006002820490506001821680611a0f57607f821691505b602082108103611a2257611a216119c8565b5b50919050565b60008190508160005260206000209050919050565b60006020601f8301049050919050565b600082821b905092915050565b600060088302611a8a7fffffffffffffffffffffffffffffffffffffffffffffffffffffffffffffffff82611a4d565b611a948683611a4d565b95508019841693508086168417925050509392505050565b6000819050919050565b6000611ad1611acc611ac78461170c565b611aac565b61170c565b9050919050565b6000819050919050565b611aeb83611ab6565b611aff611af782611ad8565b848454611a5a565b825550505050565b600090565b611b14611b07565b611b1f818484611ae2565b505050565b5b81811015611b4357611b38600082611b0c565b600181019050611b25565b5050565b601f821115611b8857611b5981611a28565b611b6284611a3d565b81016020851015611b71578190505b611b85611b7d85611a3d565b830182611b24565b50505b505050565b600082821c905092915050565b6000611bab60001984600802611b8d565b1980831691505092915050565b6000611bc48383611b9a565b9150826002028217905092915050565b611bdd826117da565b67ffffffffffffffff811115611bf657611bf5611569565b5b611c0082546119f7565b611c0b828285611b47565b600060209050601f831160018114611c3e5760008415611c2c578287015190505b611c368582611bb8565b865550611c9e565b601f198416611c4c86611a28565b60005b82811015611c7457848901518255600182019150602085019450602081019050611c4f565b86831015611c915784890151611c8d601f891682611b9a565b8355505b6001600288020188555050505b505050505050565b6000608082019050611cbb6000830187611716565b8181036020830152611ccd8186611820565b90508181036040830152611ce18185611820565b9050611cf060608301846117cb565b95945050505050565b7f4f6e6c792061646d696e20616c6c6f7765640000000000000000000000000000600082015250565b6000611d2f6012836117e5565b9150611d3a82611cf9565b602082019050919050565b60006020820190508181036000830152611d5e81611d22565b9050919050565b7f416c726561647920617070726f76656400000000000000000000000000000000600082015250565b6000611d9b6010836117e5565b9150611da682611d65565b602082019050919050565b60006020820190508181036000830152611dca81611d8e565b9050919050565b600081905092915050565b60008190508160005260206000209050919050565b60008154611dfe816119f7565b611e088186611dd1565b94506001821660008114611e235760018114611e3857611e6b565b60ff1983168652811515820286019350611e6b565b611e4185611ddc565b60005b83811015611e6357815481890152600182019150602081019050611e44565b838801955050505b50505092915050565b6000611e808284611df1565b915081905092915050565b7f496e76616c696420616374696f6e547970650000000000000000000000000000600082015250565b6000611ec16012836117e5565b9150611ecc82611e8b565b602082019050919050565b60006020820190508181036000830152611ef081611eb4565b9050919050565b7f44727567206e616d6520697320656d7074790000000000000000000000000000600082015250565b6000611f2d6012836117e5565b9150611f3882611ef7565b602082019050919050565b60006020820190508181036000830152611f5c81611f20565b9050919050565b6000606082019050611f786000830186611716565b8181036020830152611f8a8185611820565b9050611f9960408301846117cb565b949350505050565b7f4472756720646f6573206e6f7420657869737400000000000000000000000000600082015250565b6000611fd76013836117e5565b9150611fe282611fa1565b602082019050919050565b6000602082019050818103600083015261200681611fca565b9050919050565b7f4e6f7420617574686f72697a656420746f207472616e73666572000000000000600082015250565b6000612043601a836117e5565b915061204e8261200d565b602082019050919050565b6000602082019050818103600083015261207281612036565b9050919050565b600060608201905061208e6000830186611716565b61209b60208301856117cb565b6120a860408301846117cb565b949350505050565b7f4e487b7100000000000000000000000000000000000000000000000000000000600052603260045260246000fd5b60006120ea8261170c565b91506120f58361170c565b925082820390508181111561210d5761210c611951565b5b92915050565b7f496e76616c6964207061796c6f616420666f726d617400000000000000000000600082015250565b60006121496016836117e5565b915061215482612113565b602082019050919050565b600060208201905081810360008301526121788161213c565b9050919050565b600061218a8261170c565b91506121958361170c565b92508282019050808211156121ad576121ac611951565b5b92915050565b60006121be8261170c565b9150600082036121d1576121d0611951565b5b600182039050919050565b7f496e76616c69642075696e7420737472696e6700000000000000000000000000600082015250565b60006122126013836117e5565b915061221d826121dc565b602082019050919050565b6000602082019050818103600083015261224181612205565b9050919050565b60006122538261170c565b915061225e8361170c565b925082820261226c8161170c565b9150828204841483151761228357612282611951565b5b5092915050565b7f496e76616c69642061646472657373206c656e67746800000000000000000000600082015250565b60006122c06016836117e5565b91506122cb8261228a565b602082019050919050565b600060208201905081810360008301526122ef816122b3565b9050919050565b600061230182611799565b915061230c83611799565b925082820261231a81611799565b9150828204841483151761233157612330611951565b5b5092915050565b600061234382611799565b915061234e83611799565b9250828201905073ffffffffffffffffffffffffffffffffffffffff81111561237a57612379611951565b5b92915050565b600061238b82611799565b915061239683611799565b9250828203905073ffffffffffffffffffffffffffffffffffffffff8111156123c2576123c1611951565b5b9291505056fea26469706673582212209d2abc35f1df7644a9555aa9c794e4ac30a1ce86036fc741772c36dd1005a09764736f6c634300081c0033",
  "linkReferences": {},
  "deployedLinkReferences": {}
}