{
  "_format": "hh-sol-artifact-1",
  "contractName": "FentanylSupplyChain",
  "sourceName": "contracts/FentanylSupplyChain.sol",
  "abi": [
    {
      "inputs": [],
      "stateMutability": "nonpayable",
      "type": "constructor"
    },
    {
      "inputs": [],
      "name": "admin",
      "outputs": [
        {
          "internalType": "address",
          "name": "",
          "type": "address"
        }
      ],
      "stateMutability": "view",
      "type": "function"
    },
    {
      "inputs": [
        {
          "internalType": "uint256",
          "name": "requestId",
          "type": "uint256"
        }
      ],
      "name": "approveRequest",
      "outputs": [],
      "stateMutability": "nonpayable",
      "type": "function"
    },
    {
      "inputs": [],
      "name": "drugCount",
      "outputs": [
        {
          "internalType": "uint256",
          "name": "",
          "type": "uint256"
        }
      ],
      "stateMutability": "view",
      "type": "function"
    },
    {
      "inputs": [
        {
          "internalType": "uint256",
          "name": "",
          "type": "uint256"
        }
      ],
      "name": "drugs",
      "outputs": [
        {
          "internalType": "uint256",
          "name": "id",
          "type": "uint256"
        },
        {
          "internalType": "string",
          "name": "name",
          "type": "string"
        },
        {
          "internalType": "string",
          "name": "manufacturer",
          "type": "string"
        },
        {
          "internalType": "uint256",
          "name": "timestamp",
          "type": "uint256"
        },
        {
          "internalType": "address",
          "name": "currentOwner",
          "type": "address"
        }
      ],
      "stateMutability": "view",
      "type": "function"
    },
    {
      "inputs": [],
      "name": "requestCount",
      "outputs": [
        {
          "internalType": "uint256",
          "name": "",
          "type": "uint256"
        }
      ],
      "stateMutability": "view",
      "type": "function"
    },
    {
      "inputs": [
        {
          "internalType": "string",
          "name": "actionType",
          "type": "string"
        },
        {
          "internalType": "string",
          "name": "payload",
          "type": "string"
        }
      ],
      "name": "submitRequest",
      "outputs": [],
      "stateMutability": "nonpayable",
      "type": "function"
    },
    {
      "inputs": [
        {
          "internalType": "uint256",
          "name": "",
          "type": "uint256"
        }
      ],
      "name": "txRequests",
      "outputs": [
        {
          "internalType": "uint256",
          "name": "id",
          "type": "uint256"
        },
        {
          "internalType": "address",
          "name": "requestedBy",
          "type": "address"
        },
        {
          "internalType": "string",
          "name": "actionType",
          "type": "string"
        },
        {
          "internalType": "string",
          "name": "payload",
          "type": "string"
        },
        {
          "internalType": "bool",
          "name": "approved",
          "type": "bool"
        }
      ],
      "stateMutability": "view",
      "type": "function"
    }
  ],
  "bytecode": "0x6080604052348015600f57600080fd5b50336000806101000a81548173ffffffffffffffffffffffffffffffffffffffff021916908373ffffffffffffffffffffffffffffffffffffffff16021790555061120d8061005f6000396000f3fe608060405234801561001057600080fd5b506004361061007d5760003560e01c80637577ca371161005b5780637577ca37146100f0578063d7d1bbdb1461010e578063f851a4401461012a578063fca5e61e146101485761007d565b80631e649592146100825780635badbe4c1461009e57806374eb87c7146100bc575b600080fd5b61009c60048036038101906100979190610a33565b61017c565b005b6100a661028f565b6040516100b39190610ac4565b60405180910390f35b6100d660048036038101906100d19190610b0b565b610295565b6040516100e7959493929190610c13565b60405180910390f35b6100f8610408565b6040516101059190610ac4565b60405180910390f35b61012860048036038101906101239190610b0b565b61040e565b005b610132610620565b60405161013f9190610c74565b60405180910390f35b610162600480360381019061015d9190610b0b565b610644565b604051610173959493929190610c8f565b60405180910390f35b6002600081548092919061018f90610d1f565b91905055506040518060a0016040528060025481526020013373ffffffffffffffffffffffffffffffffffffffff168152602001838152602001828152602001600015158152506004600060025481526020019081526020016000206000820151816000015560208201518160010160006101000a81548173ffffffffffffffffffffffffffffffffffffffff021916908373ffffffffffffffffffffffffffffffffffffffff16021790555060408201518160020190816102519190610f73565b5060608201518160030190816102679190610f73565b5060808201518160040160006101000a81548160ff0219169083151502179055509050505050565b60025481565b60046020528060005260406000206000915090508060000154908060010160009054906101000a900473ffffffffffffffffffffffffffffffffffffffff16908060020180546102e490610d96565b80601f016020809104026020016040519081016040528092919081815260200182805461031090610d96565b801561035d5780601f106103325761010080835404028352916020019161035d565b820191906000526020600020905b81548152906001019060200180831161034057829003601f168201915b50505050509080600301805461037290610d96565b80601f016020809104026020016040519081016040528092919081815260200182805461039e90610d96565b80156103eb5780601f106103c0576101008083540402835291602001916103eb565b820191906000526020600020905b8154815290600101906020018083116103ce57829003601f168201915b5050505050908060040160009054906101000a900460ff16905085565b60015481565b60008054906101000a900473ffffffffffffffffffffffffffffffffffffffff1673ffffffffffffffffffffffffffffffffffffffff163373ffffffffffffffffffffffffffffffffffffffff161461049c576040517f08c379a000000000000000000000000000000000000000000000000000000000815260040161049390611091565b60405180910390fd5b60006004600083815260200190815260200160002090508060040160009054906101000a900460ff1615610505576040517f08c379a00000000000000000000000000000000000000000000000000000000081526004016104fc906110fd565b60405180910390fd5b60018160040160006101000a81548160ff0219169083151502179055507ff9355840bb624e252afc7a021f58568d339c8d8f7b9ed25de2bac669f695fb418160020160405161055491906111c0565b60405180910390200361061c5761061b81600301805461057390610d96565b80601f016020809104026020016040519081016040528092919081815260200182805461059f90610d96565b80156105ec5780601f106105c1576101008083540402835291602001916105ec565b820191906000526020600020905b8154815290600101906020018083116105cf57829003601f168201915b50505050508260010160009054906101000a900473ffffffffffffffffffffffffffffffffffffffff166107aa565b5b5050565b60008054906101000a900473ffffffffffffffffffffffffffffffffffffffff1681565b600360205280600052604060002060009150905080600001549080600101805461066d90610d96565b80601f016020809104026020016040519081016040528092919081815260200182805461069990610d96565b80156106e65780601f106106bb576101008083540402835291602001916106e6565b820191906000526020600020905b8154815290600101906020018083116106c957829003601f168201915b5050505050908060020180546106fb90610d96565b80601f016020809104026020016040519081016040528092919081815260200182805461072790610d96565b80156107745780601f1061074957610100808354040283529160200191610774565b820191906000526020600020905b81548152906001019060200180831161075757829003601f168201915b5050505050908060030154908060040160009054906101000a900473ffffffffffffffffffffffffffffffffffffffff16905085565b600160008154809291906107bd90610d1f565b91905055506040518060a0016040528060015481526020018381526020016040518060400160405280601081526020017f4d6f636b4d616e7566616374757265720000000000000000000000000000000081525081526020014281526020018273ffffffffffffffffffffffffffffffffffffffff1681525060036000600154815260200190815260200160002060008201518160000155602082015181600101908161086a9190610f73565b5060408201518160020190816108809190610f73565b506060820151816003015560808201518160040160006101000a81548173ffffffffffffffffffffffffffffffffffffffff021916908373ffffffffffffffffffffffffffffffffffffffff1602179055509050505050565b6000604051905090565b600080fd5b600080fd5b600080fd5b600080fd5b6000601f19601f8301169050919050565b7f4e487b7100000000000000000000000000000000000000000000000000000000600052604160045260246000fd5b610940826108f7565b810181811067ffffffffffffffff8211171561095f5761095e610908565b5b80604052505050565b60006109726108d9565b905061097e8282610937565b919050565b600067ffffffffffffffff82111561099e5761099d610908565b5b6109a7826108f7565b9050602081019050919050565b82818337600083830152505050565b60006109d66109d184610983565b610968565b9050828152602081018484840111156109f2576109f16108f2565b5b6109fd8482856109b4565b509392505050565b600082601f830112610a1a57610a196108ed565b5b8135610a2a8482602086016109c3565b91505092915050565b60008060408385031215610a4a57610a496108e3565b5b600083013567ffffffffffffffff811115610a6857610a676108e8565b5b610a7485828601610a05565b925050602083013567ffffffffffffffff811115610a9557610a946108e8565b5b610aa185828601610a05565b9150509250929050565b6000819050919050565b610abe81610aab565b82525050565b6000602082019050610ad96000830184610ab5565b92915050565b610ae881610aab565b8114610af357600080fd5b50565b600081359050610b0581610adf565b92915050565b600060208284031215610b2157610b206108e3565b5b6000610b2f84828501610af6565b91505092915050565b600073ffffffffffffffffffffffffffffffffffffffff82169050919050565b6000610b6382610b38565b9050919050565b610b7381610b58565b82525050565b600081519050919050565b600082825260208201905092915050565b60005b83811015610bb3578082015181840152602081019050610b98565b60008484015250505050565b6000610bca82610b79565b610bd48185610b84565b9350610be4818560208601610b95565b610bed816108f7565b840191505092915050565b60008115159050919050565b610c0d81610bf8565b82525050565b600060a082019050610c286000830188610ab5565b610c356020830187610b6a565b8181036040830152610c478186610bbf565b90508181036060830152610c5b8185610bbf565b9050610c6a6080830184610c04565b9695505050505050565b6000602082019050610c896000830184610b6a565b92915050565b600060a082019050610ca46000830188610ab5565b8181036020830152610cb68187610bbf565b90508181036040830152610cca8186610bbf565b9050610cd96060830185610ab5565b610ce66080830184610b6a565b9695505050505050565b7f4e487b7100000000000000000000000000000000000000000000000000000000600052601160045260246000fd5b6000610d2a82610aab565b91507fffffffffffffffffffffffffffffffffffffffffffffffffffffffffffffffff8203610d5c57610d5b610cf0565b5b600182019050919050565b7f4e487b7100000000000000000000000000000000000000000000000000000000600052602260045260246000fd5b60006002820490506001821680610dae57607f821691505b602082108103610dc157610dc0610d67565b5b50919050565b60008190508160005260206000209050919050565b60006020601f8301049050919050565b600082821b905092915050565b600060088302610e297fffffffffffffffffffffffffffffffffffffffffffffffffffffffffffffffff82610dec565b610e338683610dec565b95508019841693508086168417925050509392505050565b6000819050919050565b6000610e70610e6b610e6684610aab565b610e4b565b610aab565b9050919050565b6000819050919050565b610e8a83610e55565b610e9e610e9682610e77565b848454610df9565b825550505050565b600090565b610eb3610ea6565b610ebe818484610e81565b505050565b5b81811015610ee257610ed7600082610eab565b600181019050610ec4565b5050565b601f821115610f2757610ef881610dc7565b610f0184610ddc565b81016020851015610f10578190505b610f24610f1c85610ddc565b830182610ec3565b50505b505050565b600082821c905092915050565b6000610f4a60001984600802610f2c565b1980831691505092915050565b6000610f638383610f39565b9150826002028217905092915050565b610f7c82610b79565b67ffffffffffffffff811115610f9557610f94610908565b5b610f9f8254610d96565b610faa828285610ee6565b600060209050601f831160018114610fdd5760008415610fcb578287015190505b610fd58582610f57565b86555061103d565b601f198416610feb86610dc7565b60005b8281101561101357848901518255600182019150602085019450602081019050610fee565b86831015611030578489015161102c601f891682610f39565b8355505b6001600288020188555050505b505050505050565b7f4f6e6c792061646d696e20616c6c6f7765640000000000000000000000000000600082015250565b600061107b601283610b84565b915061108682611045565b602082019050919050565b600060208201905081810360008301526110aa8161106e565b9050919050565b7f416c726561647920617070726f76656400000000000000000000000000000000600082015250565b60006110e7601083610b84565b91506110f2826110b1565b602082019050919050565b60006020820190508181036000830152611116816110da565b9050919050565b600081905092915050565b60008190508160005260206000209050919050565b6000815461114a81610d96565b611154818661111d565b9450600182166000811461116f5760018114611184576111b7565b60ff19831686528115158202860193506111b7565b61118d85611128565b60005b838110156111af57815481890152600182019150602081019050611190565b838801955050505b50505092915050565b60006111cc828461113d565b91508190509291505056fea2646970667358221220fc2ed434605d354cf28a6a6964de7347c62268ac8b0148725896b7a5f4ff00ff64736f6c634300081c0033",
  "linkReferences": {},
  "deployedLinkReferences": {}
}